:020000040800F2
:1000000050050020A1010008DF1A00081F15000894
:10001000DD1A0008E90400084D1E00080000000079
:10002000000000000000000000000000E31A0008CB
:10003000EB04000800000000E11A0008E51A0008BF
:10004000BB010008BB010008BB010008BB010008A0
:10005000BB010008BB010008BB010008BB01000890
:10006000BB010008BB010008BB010008BB01000880
:10007000BB010008BB010008BB010008BB01000870
:10008000BB010008BB010008BB010008BB01000860
:10009000BB010008BB010008BB010008ED0400081B
:1000A000BB010008BB010008BB010008BB01000840
:1000B000891B0008BB010008BB010008BB01000848
:1000C000BB010008BB010008BB010008BB01000820
:1000D000BB010008BB010008BB010008BB01000810
:1000E000BB010008BB010008BB010008BB01000800
:1000F000BB010008BB010008BB010008BB010008F0
:10010000BB010008BB010008BB010008BB010008DF
:10011000BB010008BB010008BB010008BB010008CF
:10012000BB010008BB010008BB010008BB010008BF
:10013000BB010008BB010008BB010008BB010008AF
:10014000BB010008BB010008BB010008BB0100089F
:10015000BB010008BB010008BB010008BB0100088F
:10016000BB010008BB010008BB010008BB0100087F
:10017000BB010008BB010008BB0100080000000033
:10018000BB010008BB010008DFF810D000F09AF9AD
:1001900000480047AD230008AFF300805005002061
:1001A0000648804706480047FEE7FEE7FEE7FEE711
:1001B000FEE7FEE7FEE7FEE7FEE7FEE7791B000845
:1001C000890100082DE9F05F0546002092469B4614
:1001D00088460646814640241BE02846414647465D
:1001E000224600F001F953465A46C01A914110D3F5
:1001F00011461846224600F0E8F82D1A67EB010870
:100200004F4622460120002100F0DFF817EB0009DD
:100210004E41201EA4F10104DFDC484631462A4647
:100220004346BDE8F09F40EA01039B0703D009E085
:1002300008C9121F08C0042AFAD203E011F8013BD2
:1002400000F8013B521EF9D27047D2B201E000F82B
:10025000012B491EFBD270470022F6E710B513466A
:100260000A4604461946FFF7F0FF204610BD2DE967
:10027000FE4F81EA030404F0004421F000410094A1
:100280004FF0000B23F0004350EA01045ED052EA25
:1002900003045BD0C3F30A54C1F30A552C44A4F2FF
:1002A000F3340194A0FB0254C1F3130141F4801113
:1002B000C3F3130343F4801301FB024400FB034E1A
:1002C000840A970A44EA815447EA8357A4FB0768E3
:1002D00002958D0A05FB07854FEA932C04FB0C540D
:1002E0002705029D4FEA065847EA1637B5EB080581
:1002F0006EEB070C870E920E47EA811742EA8312D3
:10030000A7FB0201B6EB0B0164EB00042B0D43EAE3
:100310000C335E1844EB1C50DA465146E7FB0201F1
:10032000C5F313044FEA0B3343EA14534FEA043284
:10033000019C43EA0603A4F10C040294009CCDE95D
:1003400000B400F070F803B0BDE8F08F0020014663
:10035000F9E70EB540F2334102910021CDE90011D9
:100360000A460B4600F05FF803B000BDC1F30A5225
:1003700010B5C1F3130140F2FF3341F480119A42EA
:1003800001DA002010BD40F233439A42A2F2334218
:1003900003DC524200F028F810BD904010BD30B58B
:1003A0000B46014600202022012409E021FA02F533
:1003B0009D4205D303FA02F5491B04FA02F52844CD
:1003C000151EA2F10102F1DC30BD202A04DB203A27
:1003D00000FA02F1002070479140C2F1200320FA98
:1003E00003F3194390407047202A04DB203A21FA96
:1003F00002F00021704721FA02F3D040C2F120023E
:10040000914008431946704710B5141E73F100045B
:1004100008DA401C41F1000192185B411A4301D1F6
:1004200020F0010010BD2DE9F04D92469B4611B120
:10043000B1FA81F202E0B0FA80F220329046FFF782
:10044000C4FF04460F4640EA0A0041EA0B01534646
:100450005A46084313D0114653EA010019D0C8F197
:1004600040025046FFF7C0FF05460E46504659462B
:100470004246FFF7AAFF084305D0012004E02046CA
:100480003946BDE8F08D0020054346EAE0762C436E
:1004900037430A986305E40AA0EB08000022FD0A2E
:1004A00044EA47540A3002D500200146E9E7010535
:1004B00010196941DDE9084500196941BDE8F04DB1
:1004C000A2E70000064C074D06E0E06840F001039B
:1004D00094E8070098471034AC42F6D3FFF758FE73
:1004E000D4240008F4240008FEE7704710B54FF448
:1004F000807000F055F8BDE810404FF4007000F037
:100500004FB872B6FEE7000070B5044600F05EF921
:100510000546601C02D004480078044400F056F9F7
:10052000401BA042FAD370BD6C00002070B5054698
:100530000821124800F03DF96420FFF7E5FF10A004
:1005400001F088FD114CB5F5007F10D0B5F5807F26
:100550000CD10FA001F07EFD208808B16438208006
:100560000E490878401C00F00100087070BD04A01E
:1005700001F070FD20886430208070BD00100240C2
:10058000737465705F6164640000000054000020B3
:10059000737465705F726564756365005C0000204C
:1005A000044910B50A68024202D00860FFF7BEFF96
:1005B00010BD0000143C01402DE9F84FDFF8BCA14C
:1005C0000022012503264FF00F090AF1040BAAF1BE
:1005D000040E00BF0B6805FA02F42340A34270D159
:1005E0000F7907F00307012F01D0022F16D187687A
:1005F0004FEA420806FA08FC27EA0C07D1F80CC0BB
:100600000CFA08FC4CEA070CC0F808C04768A7437E
:100610000C79C4F3001494403C4344600C79E443E7
:10062000A4070AD0C4684FEA420C06FA0CF7BC4390
:100630008F6807FA0CF72743C7600C7904F00304AE
:10064000022C12D1D40800EB840CDCF820405707B0
:10065000FF0E09FA07F824EA0804D1F8108008FA16
:1006600007F848EA0408CCF8208004684FEA420CF6
:1006700006FA0CF7BC430F7907F0030707FA0CF7EB
:10068000274307604C6814F4403F70D03C4C276807
:1006900047F480472760246822F0030704F480446D
:1006A0000094384C07EB040CDCF8084897074FEA35
:1006B000177809FA08F7BC43334FB84202D1002734
:1006C00024E054E0314FB84201D101271EE0304F01
:1006D000B84201D1022719E02E4FB84201D10327B9
:1006E00014E02D4FB84201D104270FE02B4FB84240
:1006F00001D105270AE02A4FB84201D1062705E0BB
:10070000284FB84201D1072700E0082707FA08F769
:100710002743CCF80878DAF800405746D1F804C0EF
:100720009C435FEACC2C00D51C433C60DBF80040C6
:100730005F46D1F804C09C435FEA8C2C00D51C4373
:100740003C60DEF800407746D1F804C09C435FEA85
:100750008C3C00D51C433C60084F083F3C68D1F8F6
:1007600004C09C435FEACC3C00D51C433C60521C57
:10077000102AFFF42FAFBDE8F88F0000083C0140BD
:1007800044380240003001400000024000040240B2
:1007900000080240000C0240001002400014024019
:1007A00000180240001C02400069084000D00120EF
:1007B0007047426921EA02030A4043EA024181612B
:1007C00070470AB1816170470904FBE701488068FE
:1007D000704700006C0000200248816802781144D4
:1007E000816070476C0000200B4810B5016841F42F
:1007F00000710160016841F480610160016841F4A9
:1008000080710160032000F06FF80F2000F006F8FF
:1008100000F024F8002010BD003C024070B50D4DE2
:1008200004464FF47A712878B1FBF0F00A49096860
:10083000B1FBF0F000F00CFB48B9102C07D20022FD
:100840002146501E00F030F800206C6070BD012081
:1008500070BD00006C000020780000200A4808B538
:10086000016841F480410160006800F4804000901C
:100870000548001F016841F080510160006800F0E8
:100880008050009008BD000044380240002809DB79
:1008900000F01F02012191404009800000F1E0209A
:1008A000C0F8001170470000F0B40E4B1B680C46F6
:1008B000C3F30223C3F10705042D00D90425191D34
:1008C000072901D2002300E0DB1E012606FA05F10C
:1008D000491E214099409E40761E16403143F0BC8F
:1008E00001F0C8BB0CED00E0064900F00702086803
:1008F0004FF6FF03184040EA0220034A1043086005
:10090000704700000CED00E00000FA052DE9F0470B
:100910000E46050065D0DFF81481D8F80000F7B264
:1009200000F00700B04207D288F80070D8F8000045
:1009300000F00700B04254D128683D4C810712D521
:10094000400703D5206840F4E05020602878000775
:1009500003D5206840F4604020602068A96820F03A
:10096000F000084320602878C0072DD0304968681F
:100970000839012812D0022813D0032811D00968A1
:10098000890700292DDA216821F003010143216044
:10099000FFF71CFF814641F2883A0EE0096889039F
:1009A000EFE709688901ECE7FFF710FFA0EB090109
:1009B000514502D90320BDE8F0872068696800F03E
:1009C0000C00B0EB810FEFD1D8F80010404601F0D9
:1009D0000701B14207D90770006800F00700B04274
:1009E00001D00120E7E72878400705D52068E968AD
:1009F00020F4E050084320602878000706D52068DE
:100A0000296920F4604040EAC100206000F038F815
:100A10002168084AC1F30311515CC84006490860C7
:100A200006480068FFF7FAFE0020C4E7003C0240D9
:100A300008380240BC240008780000207000002024
:100A40000448054900680968044AC1F38221515CE1
:100A5000C84070477800002008380240CC240008C5
:100A60000448054900680968044AC1F34231515CF1
:100A7000C84070477800002008380240CC240008A5
:100A8000154810B5006810F00C02144813D0144932
:100A9000042A0FD0082A0ED10F4C241F2268236885
:100AA00002F03F025B0207D52068C0F38810A0FB6C
:100AB000010106E0084610BD2168C1F38811A1FBC1
:100AC00000010023FFF77EFB2168C1F30141491CAF
:100AD0004900B0FBF1F010BD083802400024F400DA
:100AE00040787D012DE9F84F04006ED02078DFF8C2
:100AF0004C93C007A9F104054AD009F1040001682C
:100B0000C1F38101012908D00068C0F381000228E7
:100B10000AD1D9F80000400206D52868800337D5ED
:100B200060680028E1D033E06068B0F5803F10D005
:100B3000B0F5A02F286810D020F4803028602868F5
:100B400020F4802028606068A8B1FFF73FFE0646C9
:100B50000DE0286840F48030F4E740F480202860FD
:100B6000F7E700BFFFF732FE801B642873D82868C0
:100B70008003F7D50CE0FFF729FE064605E000BF2D
:100B8000FFF724FE801B6428F0D828688003F7D480
:100B90002078DFF8AC8280074FF0000A3ED5A748E6
:100BA000001D016811F00C0F08D00068C0F381002F
:100BB00002280BD1D9F80000400207D4286880072A
:100BC00016D5E068012800D112E033E1E068B8B141
:100BD0000120C8F80000FFF7F9FD064605E000BF58
:100BE000FFF7F4FD801B0228C0D828688007F7D5DE
:100BF0002868216920F0F80040EAC10028600DE073
:100C0000C8F800A0FFF7E2FD064604E0FFF7DEFDAE
:100C1000801B02281FD828688007F7D42078000797
:100C200022D5864F87486169703771B10121016013
:100C3000FFF7CCFD064604E0FFF7C8FD801B022845
:100C400009D838688007F7D50EE0C0F800A0FFF794
:100C5000BDFD064605E082E0FFF7B8FD801B0228D7
:100C60007DD838688007F7D42078400768D5DFF84A
:100C7000CCB100270BF13C0BDBF80000C0000BD41B
:100C8000DBF8001041F08051CBF80010DBF80000D9
:100C9000012700F0805000906B4E3068C00510D4E2
:100CA000306840F480703060FFF790FD009005E000
:100CB000FFF78CFD0099401A022850D83068C00513
:100CC000F6D55E4EA0686C3601280FD00528306836
:100CD00010D020F001003060306820F00400306057
:100CE000A068B8B1FFF772FD00900FE0306840F0E7
:100CF0000100F4E740F004003060F7E7FFF766FD1D
:100D00000099411A41F28830814266D830688007E4
:100D1000F4D50EE0FFF75AFD009007E0FFF756FD0F
:100D20000099411A41F28830814256D830688007D4
:100D3000F4D42FB1DBF8001021F08051CBF8001073
:100D4000A069C8B33D49091D0968C1F381010229A1
:100D50004AD00228504607D0C8F8600000E03CE0C6
:100D6000FFF734FD04463BE04746C8F86000FFF754
:100D70002DFD064605E000BFFFF728FD801B022879
:100D80002BD828688001F7D4D4E907010843A16A69
:100D90002E4A490802EB0141626A41EA8211084386
:100DA00094F82C1040EA0161C9F80010012038665F
:100DB000FFF70CFD044606E03EE000BFFFF706FD2E
:100DC000001B022809D828688001F7D534E000BF4D
:100DD000FFF7FCFC001B022802D90320BDE8F88FB6
:100DE00028688001F4D427E00128F7D0D9F8000062
:100DF000E26900F4800191421CD1226A00F03F01B7
:100E0000914217D147F6C071626A0140B1EB821F6F
:100E100010D1A26A4FF0FF3300F4403103EB5202CD
:100E2000B1EB024F06D194F82C1000F07060B0EBDB
:100E3000016F01D00120D1E70020CFE70438024044
:100E400000004742800E4742007000400000FFFF54
:100E500010B5401EB0F1807F01D3012010BD4FF0CE
:100E6000E02460610F21601701F004F90020A06107
:100E700007202061002010BD7047704770B590F8C2
:100E80003C20012A32D0012480F83C40022280F824
:100E90003D2003685A689D6822F070060A68324354
:100EA0005A60134B02689A4214D0B2F1804F11D0AD
:100EB000104B9A420ED0104B9A420BD00F4B9A42D5
:100EC00008D00F4B9A4205D00E4B9A4202D00E4BDF
:100ED0009A4204D1496825F080031943916080F853
:100EE0003D40002180F83C10084670BD022070BDD6
:100EF000000001400004004000080040000C0040D9
:100F000000040140004001400018004010B50400FA
:100F100003D094F83D0010B107E0012010BD00207F
:100F200084F83C00204600F01FF8022084F83D00C1
:100F3000211D206800F02EFE012084F8460084F870
:100F40003E0084F83F0084F8400084F8410084F8B3
:100F5000420084F8430084F8440084F8450084F893
:100F60003D00002010BD000008B50068B0F1804FC2
:100F700012D10A48016841F00101016000680022B5
:100F800000F00100009011461C20FFF78DFCBDE829
:100F900008401C20FFF77ABC08BD00004038024022
:100FA00090F83D10012901D001207047022180F8FE
:100FB0003D100168CA6842F00102CA600068114928
:100FC000884214D0B0F1804F11D00F4988420ED022
:100FD0000E4988420BD00E49884208D00D498842FC
:100FE00005D00D49884202D00C49884204D181685D
:100FF00001F00701062903D0016841F001010160F9
:10100000002070470000014000040040000800403C
:10101000000C004000040140004001400018004066
:101020000168CA6822F00102CA6001680A6A41F2D6
:1010300011131A4207D10A6A9B101A4203D10A6897
:1010400022F001020A60012180F83D100020704763
:1010500070B5044690F83C000025012817D0012601
:1010600084F83C60022084F83D002068826822F009
:10107000770222F47F4282600868502838D00DDC65
:1010800020284FD005DC90B3102811D14AE002206F
:1010900070BD302846D040280AD13BE060282FD0D0
:1010A00070280DD0B0F5805F03D0B0F5005F12D08E
:1010B000012584F83D60002084F83C00284670BD7E
:1010C000CB68D1E90121206800F0C8FD2068816863
:1010D00041F0770109E0CB68D1E90121206800F0F7
:1010E000BDFD2068816841F480418160E1E719E03D
:1010F000CA684968206800F0C3FD5021206806E0F6
:10110000CA684968206800F0CCFD6021206800F0C2
:10111000AFFDCEE7CA684968206800F0B1FD402104
:101120002068F4E7226801461046F0E7704770B582
:101130000446006801694FF00005C943890715D4CA
:10114000C168C943890711D4E91E016101202077D4
:10115000206880698007204602D0FFF7E7FF04E09F
:1011600000F098F8204600F096F82577206801698D
:10117000C943490717D4C168C943490713D46FF05D
:1011800004010161022020772068806910F4407F0B
:10119000204602D0FFF7CAFF04E000F07BF82046AB
:1011A00000F079F8257720680169C943090716D44A
:1011B000C168C943090712D46FF008010161042016
:1011C00020772068C0698007204602D0FFF7AEFF75
:1011D00004E000F05FF8204600F05DF82577206815
:1011E0000169C943C90617D4C168C943C90613D4E4
:1011F0006FF010010161082020772068C06910F4A9
:10120000407F204602D0FFF791FF04E000F042F853
:10121000204600F040F8257720680169C943C907D6
:1012200008D1C168C943C90704D1891E016120469C
:1012300000F032F820680169C943090609D4C16881
:10124000C943090605D46FF0800101612046FFF70C
:1012500013FE20680169C943490609D4C168C9431E
:10126000490605D46FF040010161204600F060F8A6
:1012700020680169C94389060BD4C168C94389063E
:1012800007D46FF0200101612046BDE87040FFF7F0
:10129000F4BD70BD7047704770B51C49006809689F
:1012A000884232D11A480078C0072ED019480078F9
:1012B00000282AD0184C19492068401C2060098851
:1012C000884222D31648002222600168154B491C2F
:1012D000154D01601B682D6805FB0131134B6160E2
:1012E0001B68994200D90260032000F073FE0020C1
:1012F000616800F06FFE0120616800F06BFE6168BC
:10130000BDE87040022000F065BE70BD8000002086
:101310005C000020520000206400002050000020EB
:1013200058000020440000204C000020480000200D
:10133000704770B5040004D094F83D00002510B14A
:1013400006E0012070BD84F83C50204600F022F8F1
:10135000242084F83D002068C16821F40051C16058
:10136000204600F0B1FC2068016921F49041016140
:101370002068416921F02A0141612068C16841F477
:101380000051C1602564202084F83D0084F83E00AF
:10139000002070BDF0B587B0044614216846FEF702
:1013A0005BFF2C4A216800242B480225032691422A
:1013B0002DD1294910310A6842F480120A60096867
:1013C00001F480110591016841F004010160016898
:1013D00001F004010591016841F008010160006815
:1013E00002AA00F008000590E802CDE900050827F0
:1013F00082E8D00069461948FFF7DEF80420CDE9FD
:10140000000502AA694682E8D00015481EE0154A88
:1014100091421DD1104914310A6842F010020A604D
:10142000096801F010010591016841F001010160B6
:101430000068029400F0010005904FF4C060CDE90F
:1014400000050720CDE9036069460748FFF7B4F8B7
:1014500007B0F0BD005000403038024000080240A4
:10146000000C024000100140000002402DE9F8434A
:10147000044690F83D001F4616460D4620284CD1E4
:10148000C5B1BEB194F83C00012846D0012084F8D3
:101490003C004FF00008C4F84080212084F83D0053
:1014A000FFF794F9A6848146E684A068B0F5805FD2
:1014B00003D004E00120BDE8F883206928B12E465E
:1014C0005FF0000584F83C800EE00026FAE78021FA
:1014D000204600F07FFCA0B9AEB116F8010B2168E0
:1014E0004860E08C401EE084E08C4B464FF00002E8
:1014F00000970028EBD14FF04001204600F06AFC35
:1015000030B10320D7E735F8020BC0F30800E6E757
:10151000202084F83D000020CDE70220CBE7FEE745
:1015200070B50D4D4FF40064002221462846FFF7A8
:1015300048F9022000F068FE012221462846FFF704
:1015400040F9042000F060FE21462846BDE87040C6
:101550000022FFF736B900000014024038B528A079
:101560000068009000F06EF800F04EF801236A4623
:101570000321184600F06CFC02210123214A084691
:1015800000F066FC1F4C0320241DE16800F022FDE2
:101590000020216800F01EFD0120616800F01AFDA6
:1015A0000220A16800F016FD1434A08981B2032046
:1015B00000F0E6FC208881B2002000F0E1FCA08869
:1015C00081B2012000F0DCFC208981B2022000F011
:1015D000D7FC1434A08981B2032000F0A5FC208838
:1015E00081B2002000F0A0FCA08881B2012000F0B0
:1015F0009BFC208981B2022000F096FC38BD0000DF
:10160000D00000000400002070B50D4D4FF4805450
:10161000002221462846FFF7D4F8012000F0F4FD0F
:10162000012221462846FFF7CCF81E2000F0ECFDF1
:1016300021462846BDE870400022FFF7C2B80000EE
:10164000000C024070B5224C002208212046FFF712
:10165000B8F8204E012211463046FFF7B2F81E4D71
:10166000002280212846FFF7ACF80022E1141B4835
:10167000FFF7A7F8002220212046FFF7A2F800225A
:1016800010212046FFF79DF800224FF40051144826
:10169000FFF797F8002202213046FFF792F8114C2D
:1016A000002220212046FFF78CF80022102120463E
:1016B000FFF787F8002220212846FFF782F8284606
:1016C000BDE8704000224FF40041FFF77AB80000F7
:1016D00000180240000402400000024000140240D2
:1016E000000C02400008024070B51D4D4FF400414F
:1016F0002846FFF759F81B4CC0004FF400512070EA
:101700002846FFF751F8217841EA8000207008212F
:101710002846FFF749F8217841EA4000207002216D
:101720002846FFF741F82178084320700F280DD094
:101730000A20FEF7E9FE20780F2807D0072807D0F7
:101740000B2807D00D2807D00E2807D0002070BD29
:10175000012070BD022070BD032070BD042070BD4B
:1017600000140240560000202DE9F0412F4E0024C5
:101770004FF40047224639463046FFF722F8FFF77C
:10178000B3FF050005D000BFFFF7AEFF0028FBD177
:101790002C460122394635463046FFF712F84FF401
:1017A0000067002239462846FFF70BF8FFF79CFF39
:1017B000060005D0FFF798FF0028FBD1361DF4B2D4
:1017C000012239462E462846FEF7FBFF4FF480776C
:1017D000002239463046FEF7F4FFFFF785FF05008B
:1017E00006D000BFFFF780FF0028FBD10835ECB220
:1017F000012239463046FEF7E4FF0D4E0022022159
:101800003046FEF7DEFFFFF76FFF050006D000BF92
:10181000FFF76AFF0028FBD10C35ECB20122022150
:101820003046FEF7CEFF2046BDE8F08100100240B2
:10183000001802402DE9F04F87B014216846FEF7EA
:101840000BFD68480024016841F010010160016847
:1018500001F010010591016841F02001016001686B
:1018600001F020010591016841F00101016001686A
:1018700001F001010591016841F004010160016876
:1018800001F004010591016841F002010160016865
:1018900001F002010591016841F040010160016819
:1018A00001F040010591016841F008010160006804
:1018B000DFF8349100F00800059000220821484626
:1018C000FEF77FFFDFF824A148F2A0060022314690
:1018D0005046FEF776FFDFF818B100223021584657
:1018E000FEF76FFF002203214248FEF76AFF4FF424
:1018F0000067002239464048FEF763FF01220221BB
:101900003E48FEF75EFF01224FF409414846FEF7CC
:1019100058FF4FF44058002241463948FEF751FF26
:10192000002238213548FEF74CFF48F60810009099
:101930000125CDE90154694648460394FEF73CFE73
:101940004AF20A008DE8310069462B48FEF734FE62
:101950004FF4407000904FF44410CDE90104694603
:101960002548FEF729FE0096CDE901546946504608
:101970000394FEF721FE30200090CDE90154694622
:1019800058460394FEF718FE03200090CDE9015459
:10199000694618480394FEF70FFE0097CDE90154FD
:1019A000694615480394FEF707FE3A200090CDE9FA
:1019B0000154694611480394FEF7FEFDCDF80080FE
:1019C000CDE9015469460E480394FEF7F5FD002267
:1019D00011461720FEF768FF1720FEF757FF07B0E4
:1019E000BDE8F08F30380240001002400000024095
:1019F00000080240000402400014024000180240A7
:101A0000000C024010B586B00024174800940194E1
:101A10000294039404944FF080410594016047219F
:101A2000C0E901144FF47A71C0E903148021816187
:101A3000FFF76CFA08B1FEF764FD4FF48050009098
:101A400069460948FFF704FB08B1FEF75AFD049404
:101A500004A905480594FFF711FA002801D0FEF704
:101A600050FD06B010BD0000800000200C4810B5ED
:101A70000A4901604FF4E1314160002181600C228C
:101A8000C160C0E904128161C161FFF752FC002806
:101A900003D0BDE81040FEF734BD10BD005000403B
:101AA000C80000200C4810B50A4901604FF4E1312C
:101AB0004160002181600C22C160C0E90412816193
:101AC000C161FFF736FC002803D0BDE81040FEF7E7
:101AD00018BD10BD001001400C010020FEE7FEE71C
:101AE00070477047FEF778BE30B593B03021684636
:101AF000FEF7B2FB14210CA8FEF7AEFB1C48002435
:101B0000016841F080510160006800F08050119040
:101B10001848016841F4804101600068022500F422
:101B200080401190012003901020009506950490AC
:101B3000CDE907409020CDE9090504200B906846C7
:101B4000FEF7D0FF08B172B6FEE70F20CDE90C0515
:101B50004FF48050CDE90E4002210CA81094FEF7FE
:101B6000D5FE002801D072B6FEE713B030BD0000EC
:101B700040380240007000400248016841F47001A2
:101B80000160704788ED00E00148FFF7D0BA00001F
:101B900080000020F0B50268254C264D264E274FC8
:101BA000274B4FF0804CA04209D0604507D0A84297
:101BB00005D0B04203D0B84201D0984204D122F0FF
:101BC000700E4A6842EA0E02A0421BD0604519D04E
:101BD000A84217D0B04215D0B84213D0984211D0C5
:101BE000184DA8420ED0184DA8420BD0174DA84250
:101BF00008D0174DA84205D0164DA84202D0164D68
:101C0000A84203D122F44075CA682A434D6922F0E4
:101C100080022A4302608A68C2620A688262A04225
:101C200001D0984201D10969016301214161F0BDF0
:101C3000000001400004004000080040000C00408B
:101C400000040140004001400044014000480140C0
:101C500000180040001C00400020004010B58468BF
:101C600042EA032224F47F440A432243826010BDE7
:101C7000826822F070020A4342F0070181607047D7
:101C800010B5036A046A24F001040462846924F034
:101C9000F00444EA021423F00A020A438461026257
:101CA00010BD10B5036A23F0100303628369046A50
:101CB00023F4704343EA023224F0A00343EA011103
:101CC0008261016210BD000070B5044600680169C0
:101CD000E26821F44051114301612169A068E26981
:101CE00008436169114308432168CA6849F20C63DB
:101CF0009A430243CA6020684169A26921F4407195
:101D00001143416131492068884202D030498842FC
:101D100002D1FEF7A5FE01E0FEF792FEE269002384
:101D2000192164253226B2F5004F626828D0A0FB45
:101D30000101930F9200FEF745FA0146B0FBF5F062
:101D40006FF01802504301EB800006EB0010B0FB6F
:101D5000F5F000F0F002B1FBF5F002EB0012B1FB80
:101D6000F5F06FF01803584301EB800006EB00100C
:101D7000B0FBF5F000F00F0021681044886070BDE2
:101D8000A0FB010192185B41FEF71CFA0146B0FB73
:101D9000F5F00201B1FBF5F06FF01803584301EBC9
:101DA000800006EBC000B0FBF5F000F0F80002EB9D
:101DB0004002B1FBF5F0584301EB800006EBC00098
:101DC000B0FBF5F000F00700D6E70000001001407E
:101DD000001401402DE9F041984617460E4604468E
:101DE000069D27E0681C25D02DB1FEF7EFFCA0EB87
:101DF0000800A8421ED920680C3050E8001F21F4CA
:101E0000D07140E80012002AF5D12068143050E863
:101E1000001F21F0010140E80012002AF5D1202026
:101E200084F83D0084F83E00002084F83C00032044
:101E3000BDE8F0812068006836EA000004D0002088
:101E4000B842CFD00020F3E70120F9E7FEE7000019
:101E50002DE9F05F314F93468846044600259A46A7
:101E60002A4680213846FEF7ACFC002201212C488E
:101E7000FEF7A7FC2B4E002280213846FEF7A1FC7E
:101E8000200601D5012200E0002220213046FEF785
:101E900098FC012280213846FEF793FC60066D1CF9
:101EA000040EEDB2082DE6D3002280213846FEF75D
:101EB00088FC0024B14622E01BF8046000250022C3
:101EC00080213846FEF77DFC300601D5012200E076
:101ED000002220214846FEF774FC0122802138466A
:101EE000FEF76FFC70066D1C060EEDB2082DE6D3F2
:101EF000002280213846FEF764FC641CE4B24445AD
:101F0000DAD3BAF1000F01D0FFF70AFBBDE8F05FAA
:101F1000012211460248FEF754BC000000000240B6
:101F2000000402400008024008B5002200928DF82B
:101F30000210102242EA11218DF8011040B101284F
:101F40000AD0022816D0032813D101230B4A06E039
:101F50000A4A0123D21E02E0084A0123921E0121EF
:101F60000020FFF775FF01236A4603210620FFF7D3
:101F70006FFF08BD014A0123521EF0E70300002055
:101F8000134A10B55170090A117098B1012815D083
:101F9000022817D0032819D10123D21E01210020C5
:101FA000FFF756FF01230221BDE81040084A052033
:101FB000FFF74EBF064A0123921FEFE7044A0123B1
:101FC000521FEBE7024A0123121FE7E710BD000092
:101FD0000600002038B50446002000900846FEF7B1
:101FE000B8F99FED191B53EC112BFEF740F9FEF7E2
:101FF000BDF98DF80300010A8DF80210010C8DF86F
:102000000110000E8DF8000044B1012C0AD0022C02
:1020100016D0032C13D101230D4A06E00C4A0123EC
:10202000D21E02E00A4A0123921E01210020FFF77E
:102030000FFF042101236A460846FFF709FF38BD58
:10204000034A0123521EF0E795D626E80B2E2140C5
:10205000030000200FB4054B10B503A9044A0298F1
:1020600000F028F810BC5DF814FB000015220008F1
:102070007C0000200907090E002804DB00F1E020A5
:1020800080F80014704700F00F0000F1E02080F8A5
:10209000141D704702E008C8121F08C1002AFAD1B7
:1020A00070477047002001E001C1121F002AFBD1D8
:1020B000704700002DE9FF4F89B09B46044600257C
:1020C00006E025280BD05A460B999047641C6D1CDE
:1020D00020780028F5D10DB02846BDE8F08F002704
:1020E000B8460122474900E0074314F8013F203B6E
:1020F00002FA03F00842F7D120782E2819D114F8FB
:10210000010F47F004072A280ED06FF02F02207825
:10211000A0F1300109290CD808EB880102EB41013C
:1021200000EB0108641CF2E70A98641C50F8048B69
:102130000A9020780028CED0642808D0692806D0DC
:1021400075281ED05A460B9990476D1C58E00A9985
:102150004FF00A0901C90A91002802DA40422D21F4
:1021600002E0390504D52B218DF82010012103E070
:10217000F90704D02021F7E78A4608AE0DE00021D8
:10218000FAE70A994FF00A0901C90A91F7E74946A7
:10219000FEF705F9303106F8011D0028F7D1ADEB47
:1021A000060000F12009780701D44FF00108C84566
:1021B00002DDA8EB090000E000208046002706E0D1
:1021C00008A85A46C05D0B9990476D1C7F1C574567
:1021D000F6DB04E030205A460B9990476D1CB8F1AD
:1021E0000001A8F10108F5DC05E016F8010B5A46DC
:1021F0000B9990476D1CB9F10001A9F10109F4DCBC
:10220000641C65E70928010000EB40008000401EC7
:10221000FDD2704713B54FF6FF730122694602489D
:10222000FFF724F900981CBDC80000202DE9F041FB
:10223000FFF79AFA411E3C4C3C4D10294DD23C4EC2
:10224000022808D003280CD0012811D0062835D048
:1022500007283AD041E037A0FFF7FCFE3088643011
:1022600004E038A0FFF7F6FE30886438308034E0B0
:102270004FF47A772F602078401C00F00100207026
:10228000C00710D13348FEF7CBFE3248FEF788FE78
:10229000378031A0FFF7DEFE00202968FFF79AFEA5
:1022A0002078C00719D02B48FEF7BAFE2EA0FFF702
:1022B000D1FE00202968FFF78DFE0EE02078C007D0
:1022C0000BD1012060602DA005E02078C00728D147
:1022D000022060602DA0FFF7BDFE2078C00720D14E
:1022E00060680026012807D166602C4928680144EF
:1022F00000202960FFF76EFE606802280BD166603F
:10230000296827A0A1F57A712960FFF7A3FE0020B4
:102310002968FFF75FFE2968BDE8F04120A0FFF7BC
:1023200099BEBDE8F08100005C000020680000203C
:10233000540000205377656570737465705F2B2BB4
:102340000D0A00005377656570737465705F2D2DFD
:102350000D0A0000800000206D6F6465203D204460
:102360006F744672650D0A006D6F6465203D2053E1
:10237000776565704672650D0A000000446F7473DE
:102380007465705F2B2B0D0A00000000446F74739E
:102390007465705F2D2D0D0A00000000A0860100FD
:1023A0004E6F774672653D25640D0A0033A090B0EC
:1023B000006805901422324906A8FDF734FF142165
:1023C0000BA8FDF749FF2E49142214316846FDF78A
:1023D0002AFFFEF709FAFFF787FBFFF72BFAFFF753
:1023E00045FBFFF75FFBFFF70DFB2648FEF7D8FD27
:1023F000FFF7B4F80221012305AA0846FFF728FDDC
:1024000003200999FFF7E6FD00200699FFF7E2FD9A
:1024100001200799FFF7DEFD02200899FFF7DAFD9A
:102420000E9881B20320FFF7ABFD0B9881B200201C
:10243000FFF7A6FD0C9881B20120FFF7A1FD0D98D2
:1024400081B20220FFF79CFD009881B20020FFF7C7
:102450006BFD009881B20120FFF766FD009881B204
:102460000220FFF761FD009881B20320FFF75CFDB9
:1024700005A0FFF7EFFDFFF7D9FEF9E72000000008
:102480009424000880000020737465705F616464A8
:1024900000000000E8030000E8030000E80300007B
:1024A000E803000000000000FE070000FF0300003A
:1024B000FF030000FF030000000000000000000018
:1024C00000000000010203040607080900000000E4
:1024D00001020304F4240008000000208000000032
:1024E000942000087425000880000020D00400001B
:1024F000A4200008102040802000000032000000CE
:102500003200000032000000320000000000000035
:1025100000000000FF0F0000FD2F0000FE1F000064
:1025200000000000FF030000FF030000FF030000A5
:10253000FF03000000000000E803000040420F001D
:10254000E8030000BC020100E803FF0000000000F7
:10255000010000000000000000000000000000007A
:102560000100000010000000000000000024F40042
:042570000000000067
:040000050800018965
:00000001FF
